:100000004BC065C064C063C062C061C060C05FC0F7
:100010005EC0C6C05CC05BC05AC04BC658C057C0AB
:1000200056C00EC731C153C052C068C450C04FC083
:100030004EC04DC06BC175C183C199C1B1C1FCC176
:10004000FBC149C24CC219C34AC38CC322C4CEC32C
:10005000F7C342C448C4496E6963696F2056464479
:100060000D00000001020100FC60DAF266B6BEE09D
:10007000FEE600000000000000EE3E9C7A9E8EF638
:100080006E6078AE1CAA2AFCCEE68CB61E7C545656
:100090009276DA000000001011241FBECFEFD4E0EA
:1000A000DEBFCDBF11E0A0E0B1E0EEE0F5E102C0BF
:1000B00005900D92A032B107D9F711E0A0E2B1E0AE
:1000C00001C01D92A33AB107E1F702D0EAC698CF6A
:1000D0008CE788B917B888E88BB984E78AB979D0F2
:1000E00023D586E880937A0081EC80937C00809110
:1000F0007A00806480937A0080917A0086FDFCCF3C
:1001000091E09093700083E884BD95BD80917A0062
:10011000806480937A0080917A0086FDFCCF809184
:100120007800909179008550914080F3809178001B
:10013000909179008C50924048F78091780090918E
:100140007900909396018093950180EC80937C00D8
:1001500080917A00886180937A0082E090E092D862
:10016000909398018093970184E090E08BD89093CE
:100170009A018093990180E090E084D89093A00147
:1001800080939F0180917A00806480937A007894B4
:1001900086E590E05FD080E091E037D594D0FECF47
:1001A0001F920F920FB60F9211248F9380916D01C1
:1001B0008F5F80936D018150833E29F410926D0111
:1001C00081E080936E018F910F900FBE0F901F9072
:1001D0001895589A519A109240011092410110922C
:1001E000C50089E08093C40088E98093C10086E05F
:1001F0008093C200089580916E01882331F490911C
:100200004001809141019817B1F380916E018130D6
:1002100011F480E00895E0914101EF5FEF71E09308
:100220004101F0E0E05EFE4F80810895982F8091BB
:10023000C00085FFFCCF9093C6000895CF93DF9355
:10024000EC0102C02196F2DF88818823D9F7DF9183
:10025000CF910895CF93DF93EC0104C02196F9016B
:100260008491E4DF9E01FE0184918823B9F7DF9138
:10027000CF910895909140018091410120E098171D
:1002800009F421E0822F08951F920F920FB60F926A
:1002900011248F939F93EF93FF939091C6008091C9
:1002A00040018F5F8F7180934001E0E2F1E0E80F41
:1002B000F11D9083FF91EF919F918F910F900FBE51
:1002C0000F901F90189580916E01882339F080E17E
:1002D0008093420186E08093920109C0809142019F
:1002E000882349F01092B20083B5826083BD1092DA
:1002F0006D0110926E0180914201E82FF0E0E13132
:10030000F10508F0FAC2E65EFF4F0994B3DF8823D7
:1003100009F0F3C281E08093420187E08093B1004D
:10032000089569DF823619F0863729F402C082E029
:10033000BFC289E0BDC280E18093420181E0C9C2B1
:100340005ADF823719F0873769F402C088E0B0C2FB
:1003500083E08093420110929101109294011092D7
:100360009301089580E18093420182E0B2C243DFAD
:100370008C3679F08D3618F4893669F408C08037E8
:1003800021F0833741F484E093C285E091C286E096
:100390008FC287E08DC280E18093420184E099C2E0
:1003A0002ADF482F80538A3008F090C08091930153
:1003B000909194019C01B3E0220F331FBA95E1F7AD
:1003C000880F991F280F391F20533040240F311DEB
:1003D0003093940120939301809191018F5F8093DA
:1003E0009101833008F489C2C90180559040813A57
:1003F000910508F06BC088E890E0AC01249FC00133
:10040000259F900D349F900D1124499662E370E072
:100410001ED87093940160939301F8947093A00197
:1004200060939F0178945C9A5C98609193017091BD
:10043000940180E090E048C0DEDE482F80538A308F
:1004400008F044C080919301909194019C01F3E0E5
:10045000220F331FFA95E1F7880F991F280F391FD4
:1004600020533040240F311D309394012093930189
:10047000809191018F5F80939101843008F43DC297
:10048000F89480914201853029F4309398012093AB
:10049000970104C030939A012093990110929B0117
:1004A00010929C0110929D0110929E01789480916F
:1004B00042016091930170919401853019F482E0BA
:1004C00090E002C084E090E0E2D6F1C180E1809348
:1004D000420183E0FEC15C9A5C984D9AE8C18BDED4
:1004E000803709F440C0813738F4893609F440C0B8
:1004F0008F3609F0B3C082C0833721F0863709F008
:10050000ADC059C020919F013091A00100D000D012
:1005100000D0EDB7FEB7319680E791E0ADB7BEB73A
:1005200012969C938E93119780E191E0938382833E
:1005300082E390E0AC01249FC001259F900D349F81
:10054000900D11248C5B9F4F68E870E094D7758301
:100550006483A9D48DB79EB706960FB6F8949EBF54
:100560000FBE8DBF81C0209197013091980104C0CA
:100570002091990130919A0100D000D000D0EDB7C0
:10058000FEB7319680E791E0ADB7BEB712969C9367
:100590008E93119785E191E0938382833583248341
:1005A00082D44DB75EB74A5F5F4F0FB6F8945EBF17
:1005B0000FBE4DBF59C0809195019091960100D01A
:1005C00000D000D0EDB7FEB7319620E731E0ADB7EF
:1005D000BEB712963C932E93119720E131E03383FE
:1005E00022839C0173E0220F331F7A95E1F7880F75
:1005F000991F820F931F61E270E02CC0F8948091E4
:10060000A1019091A2019093940180939301789419
:1006100000D000D000D0EDB7FEB7319680E791E072
:10062000ADB7BEB712969C938E93119780E191E07F
:100630009383828380919301909194019C0153E074
:10064000220F331F5A95E1F7880F991F820F931FCE
:100650006BE070E0FCD675836483A2CF80E1809369
:10066000420185E08093920180914201803109F43A
:1006700044C180E791E0E2DD1AC11092910110922D
:1006800094011092930110926F01B5DD8C3629F11F
:100690008D3640F48236F9F0833681F0813609F0E8
:1006A0002CC113C08337A9F0843721F0823709F0B9
:1006B00024C102C08AE0FCC08BE0FAC080918000B7
:1006C0008F7380938000299AF2C08FEF6FEF71E0F3
:1006D00047C08CE0EDC08DE0EBC08EE0E9C08BDD63
:1006E000982F873430F4813440F480538A3048F4B2
:1006F00006C08156863028F49052975308C0982F30
:1007000006C080E18093420188E08093920180914D
:100710009101282F2F5F20939101823040F4809126
:100720006F018295807F890F80936F01089560919A
:1007300093017091940134E0660F771F3A95E1F7C9
:10074000690F711D7093940160939301253008F433
:10075000D4C052E06030750708F03FC080916F014F
:1007600002D2A5C048DD982F80919101282F2F5FDC
:1007700020939101882319F490936F010895973481
:1007800038F4913450F4892F80538A3050F407C0E4
:10079000892F8156863028F49052975308C0982F9D
:1007A00006C080E18093420188E0809392016091CD
:1007B00093017091940184E0660F771F8A95E1F7A9
:1007C000690F711D7093940160939301243008F4B4
:1007D00094C082E06030780728F080E18093420185
:1007E00088E077C080916F01EBD161C004DD982F64
:1007F000873430F4813440F480538A3048F406C0A2
:100800008156863028F49052975308C0982F06C01E
:1008100080E18093420188E08093920120916F01F2
:100820002295207F290F20936F01809191018F5F86
:1008300080939101823008F460C0822FD1D137C0FB
:10084000DADC982F873430F4813440F480538A30D6
:1008500048F406C08156863028F49052975308C059
:10086000982F06C080E18093420188E08093920136
:1008700020916F012295207F290F20936F01809195
:1008800091018F5F809391018230B8F1822F0ED257
:100890000EC0B1DC982F809191019D3061F4E82F5A
:1008A000F0E0E059FE4F108280E791E0AED18FE09A
:1008B000809342010895E82FF0E0E059FE4F9083C5
:1008C0008F5F809391018132C0F080E1809342017B
:1008D00089E08093920108951092B10081E2A6DC34
:1008E0001092420108951092B1008FE39FDC809135
:1008F0009201805D9BDC1092420108951F920F923D
:100900000FB60F921124EF92FF920F931F932F9324
:100910003F934F935F936F937F938F939F93AF9387
:10092000BF93EF93FF9380914301982F9F5F909324
:100930004301882389F480EC80937C0080917800C7
:1009400090917900909396018093950180917A001F
:10095000806480937A00D3C09B3F28F081EC809321
:100960007C001092430180917A00806480937A0029
:1009700080917800909179009093A2018093A101D9
:1009800060919F017091A001E091A101F091A201FD
:1009900020919701309198016E1B7F0B882777FD7E
:1009A0008095982F442737FD4095542F31D56F3FC0
:1009B0002FEF72072FEF82072FE092074CF07FEFA7
:1009C000E72E7FEFF72E7FEF072F7FE0172F11C065
:1009D0007B018C0181E0E81680E0F80680E00807E2
:1009E00080EF180734F461E0E62EF12C012D60EF62
:1009F000162F2091990130919A01C801B70153E057
:100A0000660F771F881F991F5A95D1F7BC01992748
:100A100077FD9095892F442737FD4095542FF8D4C2
:100A20006F3FEFEF7E07EFEF8E07EFE19E072CF0B1
:100A30006FEF7FEF8FEF9FE10CC0613020E0720716
:100A400020E0820720EE920724F461E070E080E06D
:100A500090EE20919B0130919C0140919D0150911D
:100A60009E01260F371F481F591F620F731F841FD7
:100A7000951F6F3FEFEF7E07EFEF8E07EFE39E07C7
:100A80002CF06FEF7FEF8FEF9FE30CC06130E0E061
:100A90007E07E0E08E07E0EC9E0724F461E070E062
:100AA00080E090EC60939B0170939C0180939D018A
:100AB00090939E01CA01B9016E0D7F1D801F911F89
:100AC000603020E8720726E1820720E092072CF0D0
:100AD00060E070E886E190E006C097FF04C060E047
:100AE00070E080E090E033E0660F771F881F991F69
:100AF0003A95D1F7BB2797FDB095AB2F87BDFF91F6
:100B0000EF91BF91AF919F918F917F916F915F9185
:100B10004F913F912F911F910F91FF90EF900F9068
:100B20000FBE0F901F90189585B1826185B984B171
:100B30008F6284B98FEF8093880081EC809380006E
:100B40008AE08093810081E58CBD81E08DBD80E0ED
:100B50001EBC0DB407FEFDCF8F5F8330C9F78EB585
:100B6000289A28980895EFE6F0E090819E7F908380
:100B7000E0E8F0E09081906C9083282F220F909114
:100B80006B019170922B90936B01881F8827881FAF
:100B900090916C019E7F982B90936C017170609383
:100BA0006A01972F917080916B018E7F892B8093C2
:100BB0006B0180916C018EBD8CB580688CBD0895F1
:100BC000E82F8A3228F0803630F081568A3110F0D2
:100BD00080E005C0E052F0E0E85CFF4F8491C3CFB5
:100BE000282F30E03093890020938800882339F43F
:100BF000809180008F7380938000299A089580915E
:100C00008000806C809380000895DC0180916F00EB
:100C10008E7F80936F0020E027C09E3251F4222304
:100C200089F0E22FF0E0EB5BFE4F80818F5F8083E5
:100C30001AC09A3290F0903628F0892F81568A3166
:100C400060F49052E92FF0E0E85CFF4F8491E22FCE
:100C5000F0E0EA5BFE4F808305C0E22FF0E0EA5B44
:100C6000FE4F10822F5F11969C919923B1F610923E
:100C7000670187E0809368011092690180E890E045
:100C800090931D0180931C01222361F02093660143
:100C9000822F06C0E82FF0E0EA5BFE4F10828F5FE4
:100CA0008830C0F381E080936F00089580931B012A
:100CB00008951F920F920FB60F9211242F933F9316
:100CC0004F938F939F93EF93FF93809145018F5F95
:100CD00080934501893008F4A7C0109245014091E6
:100CE00066014930C0F120911B012223A1F18091BE
:100CF0001E0190911F01019790931F0180931E0187
:100D0000019649F589E1289FC001112490931F01A4
:100D100080931E01809167018F5F809367018091AE
:100D20006701992787FD9095242F30E02817390710
:100D30001CF489EF809367018091670180936901BA
:100D400080916701895F8093680180E890E09093CB
:100D50001D0180931C018091690187FD0AC080916B
:100D60006901992787FD9095242F30E0821793071A
:100D70004CF080916B01817080936B0180916C01CC
:100D80008E7F17C0E0916901FF27E7FDF095EA5BD0
:100D9000FE4F9081292F220F80916B018170822B51
:100DA00080936B01991F9927991F80916C018E7F09
:100DB000892B80936C0180911C0190911D01917091
:100DC00080936A01917080916B018E7F892B809353
:100DD0006B01809169018F5F8093690180911C0193
:100DE00090911D019695879590931D0180931C010C
:100DF00080911C0190911D01892B31F480E890E0D5
:100E000090931D0180931C0190916901809168016C
:100E1000891724F4809167018093690180916C01A6
:100E20008EBD8CB580688CBDFF91EF919F918F91A5
:100E30004F913F912F910F900FBE0F901F901895DB
:100E40001F920F920FB60F9211248F939F93EF93DF
:100E5000FF9380914401813041F410924401289A1B
:100E600028988CB58F778CBD13C080911A01815062
:100E700080931A01E82FF0E0E659FE4F90819EBD65
:100E8000882331F482E080931A0181E08093440149
:100E9000FF91EF919F918F910F900FBE0F901F9038
:100EA0001895F89432C3AEE0B0E0E8E5F7E004C38B
:100EB0000D891E8986E08C831A8309838FEF9FE753
:100EC0009E838D839E01275E3F4FCE0101966F89E1
:100ED000788DA90109D02F813885020F131FF801E1
:100EE00010822E96E4E004C3ABE0B0E0E9E7F7E05F
:100EF000D5C23C012B015A01FC0117821682838165
:100F000081FD03C06FEF7FEFB9C19AE0892E1E010A
:100F10000894211C311CF3012381F20123FD8591EA
:100F200023FF81912F01882309F4A5C1853239F46B
:100F300023FD859123FF81912F01853221F490E0DB
:100F4000B301BED1E8CF982FFF24EE249924FFE10E
:100F5000FF15D0F09B3269F09C3228F4903259F0A2
:100F6000933291F40EC09D3249F0903369F441E020
:100F700024C052E0F52A84E0F82A28C098E0F92A33
:100F800025C0E0E1FE2A22C0F7FC29C0892F80534A
:100F90008A3070F4F6FE05C0989C902C1124980EAF
:100FA00015C0E89CE02C1124E80EF0E2FF2A0EC0E8
:100FB0009E3229F4F6FC5FC140E4F42A07C09C3657
:100FC00019F450E8F52A02C0983649F4F20123FDDD
:100FD000959123FF91912F01992309F0B8CF892F83
:100FE0008554833018F08052833038F444E050E068
:100FF000A40EB51E5FE359830FC0933631F09337CB
:1010000079F0933509F052C01FC0F50180818983C2
:1010100042E050E0A40EB51E610101E010E011C0F5
:10102000F501C080D180F6FC03C06FEF7FEF02C0F6
:10103000692D70E042E050E0A40EB51EC60135D126
:101040008C015FE7F52213C0F501C080D180F6FC6A
:1010500003C06FEF7FEF02C0692D70E042E050E007
:10106000A40EB51EC60116D18C0150E8F52AF3FE78
:1010700006C018C080E290E0B30122D1EA948E2D20
:1010800090E008171907B0F30DC0F601F7FC859141
:10109000F7FE81916F0190E0B30112D1E110EA9463
:1010A000015010400115110581F7E2C0943611F08E
:1010B000993661F5F7FE08C0F50120813181428142
:1010C000538184E090E00AC0F501808191819C0108
:1010D000442737FD4095542F82E090E0A80EB91EBA
:1010E0009FE6F92257FF09C050954095309521950C
:1010F0003F4F4F4F5F4FE0E8FE2ACA01B901A101FF
:101100002AE030E009D1D82ED2183FC0953729F413
:101110001F2D1F7E2AE030E01DC01F2D197F9F3636
:1011200061F0903720F4983509F0A5C00FC09037D2
:1011300039F0983709F09FC004C028E030E00AC0B9
:10114000106114FD146020E130E004C014FD16604D
:1011500020E132E017FF08C0F501608171818281D2
:10116000938144E050E008C0F50180819181BC0189
:1011700080E090E042E050E0A40EB51EA101CCD08A
:10118000D82ED2188FE7F82EF122F6FE0BC05EEFB4
:10119000F522D91438F4F4FE07C0F2FC05C08FEE36
:1011A000F82202C01D2D01C0192DF4FE0DC0FE0154
:1011B000ED0DF11D8081803319F499EEF92208C0FC
:1011C0001F5FF2FE05C003C08F2D867809F01F5FF8
:1011D0000F2DF3FC13C0F0FE0EC01E1510F09D2C59
:1011E0000AC09D2C9E0C911A1E2D05C080E290E035
:1011F000B30166D01F5F1E15C8F304C01E1510F49E
:10120000E11A01C0EE2404FF0EC080E390E0B301B8
:1012100057D002FF1BC001FD03C088E790E00EC05D
:1012200088E590E00BC0802F867881F001FF02C036
:101230008BE201C080E2F7FC8DE290E0B30140D088
:1012400005C080E390E0B3013BD09A94D914C8F371
:10125000DA94F101ED0DF11D808190E0B30130D001
:10126000DD20B1F705C080E290E0B30129D0EA9417
:10127000EE20C9F750CEF30166817781CB012B9622
:10128000E2E128C1A8E1B0E042E050E0A5C0B2D060
:10129000272FB1C0FC010590615070400110D8F7B4
:1012A000809590958E0F9F1F0895FC0161507040AE
:1012B00001900110D8F7809590958E0F9F1F08958B
:1012C0000F931F93CF93DF938C01EB018B8181FFF1
:1012D0001BC082FF0DC02E813F818C819D8128170C
:1012E000390764F4E881F9810193F983E88306C042
:1012F000E885F985802F0995892B31F48E819F81AE
:1013000001969F838E8302C00FEF1FEFC801DF910C
:10131000CF911F910F910895FA01AA27283051F11A
:10132000203181F1E8946F936E7F6E5F7F4F8F4F16
:101330009F4FAF4FB1E03ED0B4E03CD0670F781F75
:10134000891F9A1FA11D680F791F8A1F911DA11D5A
:101350006A0F711D811D911DA11D20D009F4689493
:101360003F912AE0269F11243019305D3193DEF63B
:10137000CF010895462F4770405D4193B3E00FD0F1
:10138000C9F7F6CF462F4F70405D4A3318F0495DDC
:1013900031FD4052419302D0A9F7EACFB4E0A695BF
:1013A0009795879577956795BA95C9F700976105E1
:1013B000710508959B01AC010A2E06945795479537
:1013C00037952795BA95C9F7620F731F841F951F2C
:1013D000A01D0895DC01CB01FC01F999FECF06C0E8
:1013E000F2BDE1BDF89A319600B40D9241505040E3
:1013F000B8F70895262FF999FECF1FBA92BD81BD87
:1014000020BD0FB6F894FA9AF99A0FBE0196089586
:10141000629FD001739FF001829FE00DF11D649FD8
:10142000E00DF11D929FF00D839FF00D749FF00D64
:10143000659FF00D9927729FB00DE11DF91F639F05
:10144000B00DE11DF91FBD01CF0111240895AA1BA4
:10145000BB1B51E107C0AA1FBB1FA617B70710F09F
:10146000A61BB70B881F991F5A95A9F780959095D1
:10147000BC01CD01089597FB092E07260AD077FD00
:1014800004D0E5DF06D000201AF4709561957F4FF7
:101490000895F6F7909581959F4F08952F923F926A
:1014A0004F925F926F927F928F929F92AF92BF9274
:1014B000CF92DF92EF92FF920F931F93CF93DF9320
:1014C000CDB7DEB7CA1BDB0B0FB6F894DEBF0FBE7D
:1014D000CDBF09942A88398848885F846E847D84CA
:1014E0008C849B84AA84B984C884DF80EE80FD80CC
:1014F0000C811B81AA81B981CE0FD11D0FB6F89442
:0E150000DEBF0FBECDBFED010895F894FFCF02
:10150E00436F6E766572736F7220426F6F737400E5
:10151E002530336400253034640002148000F40159
:00000001FF
