:1000000019C033C032C031C030C02FC02EC02DC087
:100010002CC02BC02AC049C028C027C026C025C07C
:1000200024C023C0F9C021C020C01FC01EC01DC0F5
:100030001CC01BC011241FBECFEFD4E0DEBFCDBF5C
:1000400011E0A0E0B1E0E6E8F2E002C005900D9218
:10005000AC30B107D9F711E0ACE0B1E001C01D92BE
:10006000A833B107E1F72FD0F6C0CACF1F939C0188
:10007000FB0164E670E0F1D0482F192FC90164E656
:1000800070E0EBD0605D6083842F912F6AE070E0B8
:10009000E4D0605D6183842F912F6AE070E0DDD051
:1000A000805D828313821F9108951F920F920FB675
:1000B0000F9211248F9380E889B98F910F900FBE12
:1000C0000F901F901895FF920F931F9318B817B8B1
:1000D00080E88BB980EC8AB950D086E880937A00AA
:1000E00081EC80937C0080917A00806480937A0018
:1000F00080917A0086FDFCCF8FE496E4909389008E
:10010000809388008DE08093810082E080936F006F
:10011000789480E091E05CD081ECF82E00EC3FD048
:10012000182F4ED0103319F01133C9F70CC00093BB
:100130007C0080917A00806480937A0080917A00BC
:1001400086FDFCCF0BC0F0927C0080917A00806429
:1001500080937A0080917A0086FDFCCF80917800B0
:10016000909179006EE271E081DF8DE229D08EE21C
:1001700091E02ED08DE024D0D2CF589A519A10928F
:100180002C0110922D011092C50089E08093C400CB
:1001900088E98093C10086E08093C2000895909121
:1001A0002C0180912D019817D1F3E0912D01EF5F83
:1001B000EF71E0932D01F0E0E45FFE4F8081089540
:1001C000982F8091C00085FFFCCF9093C6000895C2
:1001D000FC0107C08091C00085FFFCCF3196909351
:1001E000C60090819923B1F70895FC0107C0809162
:1001F000C00085FFFCCF31969093C600949199235F
:10020000B1F7089590912C0180912D0120E098176D
:1002100009F421E0822F08951F920F920FB60F92DA
:1002200011248F939F93EF93FF939091C600809139
:100230002C018F5F8F7180932C01ECE0F1E0E80FCF
:10024000F11D9083FF91EF919F918F910F900FBEC1
:100250000F901F901895F89414C0AA1BBB1B51E176
:1002600007C0AA1FBB1FA617B70710F0A61BB70B26
:10027000881F991F5A95A9F780959095BC01CD01CB
:060280000895F894FFCF81
:0C0286005465737465205646440D00005A
:00000001FF
