:1000000019C033C032C031C030C02FC02EC02DC087
:100010002CC02BC02AC049C028C027C026C025C07C
:1000200024C023C062C121C020C01FC01EC01DC08B
:100030001CC01BC011241FBECFEFD4E0DEBFCDBF5C
:1000400011E0A0E0B1E0E6E9F3E002C005900D9216
:10005000AE31B107D9F711E0AEE1B1E001C01D92B8
:10006000AA34B107E1F72FD05FC1CACF1F939C011B
:10007000FB0164E670E079D1482F192FC90164E6CD
:1000800070E073D1605D6083842F912F6AE070E02F
:100090006CD1605D6183842F912F6AE070E065D13F
:1000A000805D828313821F9108951F920F920FB675
:1000B0000F9211248F9380E889B98F910F900FBE12
:1000C0000F901F901895BF92CF92DF92EF92FF9200
:1000D0000F931F9318B817B880E88BB980EC8AB9D2
:1000E000B5D086E880937A0081EC80937C00809183
:1000F0007A00806480937A0080917A0086FDFCCF3C
:100100008FE496E490938900809388008DE080933B
:10011000810085E087BD83E884BD81E085BD82E004
:1001200080936F00789480E091E0BBD050ECD52EA6
:1001300045E0B42E31ECC32E9BD0182FAAD0D0921C
:100140007C0080917A00806480937A0080917A00AC
:1001500086FDFCCF80917800909179008D5C924073
:1001600020F0B7BC8BE091E09CD0113371F11233D9
:1001700018F4103309F706C0113609F458C01A37BD
:10018000D9F65CC0D0927C0080917A008064809324
:100190007A0080917A0086FDFCCF80917800909162
:1001A00079007C0100E010E060E471E05FDF8DE247
:1001B00070D080E491E075D08DE06BD0C801B701BC
:1001C00028EE30E040E050E022C0C0927C008091F8
:1001D0007A00806480937A0080917A0086FDFCCF5B
:1001E00080917800909179007C0100E010E060E45B
:1001F00071E03CDF8DE24DD080E491E052D08DE0A3
:1002000048D0C801B7012FE430E040E050E08ED084
:10021000DC01CB01892F9A2FAB2FBB2760E471E063
:1002200025DF80E491E03DD08DE033D085CF87B5E8
:10023000823308F081CF87B58F5F06C087B58823EA
:1002400009F47ACF87B5815087BD76CF589A519AF5
:1002500010923E0110923F011092C50089E08093F8
:10026000C40088E98093C10086E08093C2000895AD
:1002700090913E0180913F019817D1F3E0913F01A9
:10028000EF5FEF71E0933F01F0E0E25EFE4F8081AF
:100290000895982F8091C00085FFFCCF9093C600F1
:1002A0000895FC0107C08091C00085FFFCCF319606
:1002B0009093C60090819923B1F70895FC0107C07F
:1002C0008091C00085FFFCCF31969093C600949139
:1002D0009923B1F7089590913E0180913F0120E06C
:1002E000981709F421E0822F08951F920F920FB6FC
:1002F0000F9211248F939F93EF93FF939091C600D9
:1003000080913E018F5F8F7180933E01EEE1F1E0BD
:10031000E80FF11D9083FF91EF919F918F910F90C6
:100320000FBE0F901F901895F89433C0629FD001B4
:10033000739FF001829FE00DF11D649FE00DF11DA0
:10034000929FF00D839FF00D749FF00D659FF00D4F
:100350009927729FB00DE11DF91F639FB00DE11D3C
:10036000F91FBD01CF0111240895AA1BBB1B51E148
:1003700007C0AA1FBB1FA617B70710F0A61BB70B15
:10038000881F991F5A95A9F780959095BC01CD01BA
:060390000895F894FFCF70
:100396005465737465205646440D004F70732E20C5
:0E03A60054656E73616F20616C74610D000010
:00000001FF
